:020000040000FA
:020000000528D1
:040002000034003492
:080008000728A220182820009F
:100010008D189928902820000D1926288D195E2802
:100020000D1A4228270096010B102000111009001C
:1000300020008E1B1D288E171E288E137F30A200D5
:0C004000A301A30B2128A20B20281828E4
:04004C0020000D1C67
:100050003A280C1021000E192E2832280E112000EB
:100060008E1536280E1520008E1136281110111C01
:100070003728262821000E1D0E1520008E110C1485
:100080008C1412282700161C122820000D1C3A2858
:1000900020000C102F30A000A101A10B4D28A00BB7
:1000A0004C2821000E1120000C108E15960197018E
:1000B0001110111C592820008E113A282700161CF7
:1000C000122820000D1C3A2820008C10A001A00B43
:1000D000672821000E1120008E159601970111103E
:1000E000111C702821000E1520008E111110111CFA
:1000F000772821000E1120008E151110111C7E286A
:1001000021000E1520008E111110111C85282100D0
:100110000E1120008E151110111C8C288E113A28FA
:10012000250019309100200019309B0020009A0111
:100130000B28250011309100200011309B00200079
:040140009A010B28ED
:0C0144002100EA3099002A009A012100F5
:10015000151095101511951515129512151795175F
:1001600020008B150B120B178B172100013091000B
:1001700021009201210093012100940120009101AE
:1001800020009201200093012000940121000E150F
:1001900025000C3093002500193091002000A83074
:1001A0002000990120009C01200019309B002200B2
:1001B0009D019C012000FF308C0022008C01210059
:1001C00000308C0025008C0123008C0126008C015E
:1001D00020008D0122008D012100FF308D002500BF
:1001E0008D0123008D0126008D0127000F30940022
:1001F00027000E30950027008D012000C3308E00AF
:1002000022008E01210000308E0025008E01230087
:100210008E0126008E010B102000181420001C15E2
:0802200021000E15200008006A
:020000040001F9
:02000E00A40943
:02001000FF1FD0
:00000001FF
