:020000040000FA
:020000000528D1
:040002000034003492
:0800080007281720162820002C
:1000100091199820241C12288D1CE0280D1CBF2843
:0E0020000030A200200091110B1009001628DC
:02002E002100AF
:100030007A3099002A009A012100151095101511A7
:100040009515151295121517951720008B150B1283
:100050000B178B172100083091002100920121001D
:1000600093012100940120009101200092012000C1
:1000700093012000940122009D019C012000A830E2
:10008000200099012000FF308C002200FF308C00FE
:10009000210000308C0025008C0123008C012600FB
:1000A0008C012700003091002700920120008D0173
:1000B00022008D012100FF308D0025008D012300DD
:1000C0008D0126008D0127000030940027000330A9
:1000D000950027008D0120008E0122008E01210055
:1000E000FF308E0025008E0123008E0126008E0138
:1000F00027000030970027000030980027008E016D
:100100002400023092002400163095009516240039
:1001100080309600240097012400C0309400200015
:10012000A201A40120000B10270093010B1008006E
:10013000240011082400941E9E28A128141DA12823
:10014000AA282000231CA828A0002114231008009E
:100150002314080024001512200024140C10220877
:1001600024009100240015162000A219BA20A21B19
:10017000BA200800A401FF308C00A2010800200072
:100180000C148C100C15E820E820E820E8208C14D2
:10019000E820E820E820E8208C10E820E820E8208B
:1001A000E8208C14E820E820E820E8208C10E820E3
:1001B000E820E820E8208C1424100F30A200122838
:1001C00020000C148C140C152410F030A2001228FE
:1001D0001110200018142000960197011110111C15
:0801E000EF28200018100800B0
:020000040001F9
:02000E00A40943
:02001000FF1ED1
:00000001FF
