:020000040000FA
:020000000528D1
:040002000034003492
:0800080007281B20142820002A
:10001000111C1128200020180E281028B1201128AA
:1000200092202000910109002000A20A0330220240
:060030000319A2011428CF
:0A00360021007A3099002A009A0197
:1000400021001510951015119515151295121517FB
:10005000951720008B110B120B178B1721000930FD
:1000600091002100920121009301210094012000C0
:1000700091012000920120009301200094012000B2
:10008000A8302000990122009D019C0120008C01D4
:1000900022008C01210000308C0025008C012300FF
:1000A0008C0126008C01270000309100270092016E
:1000B00020008D0122008D012100FF308D002500E0
:1000C0008D0123008D0126008D0127000030940052
:1000D00027000030950027008D0120008E012200AE
:1000E0008E012100FF308E0025008E0123008E013D
:1000F00026008E012400273092002400083095004D
:10010000951624009601240097012400C030940025
:100110002000A00120000B10270093010B102000ED
:0401200018140800A7
:0C012400DD202400161416189528240075
:1001300002309100240014189B28DD202400161B97
:10014000E72824004530910024001418A528DD205C
:100150002400161BE72816151619AC2820002014B9
:100160000800DD202000240016141618B5282400ED
:100170000330910024001418BB28DD202400161B36
:10018000E72896152400141CC32824001108200019
:10019000A30016151619CA28CF200C140800200039
:1001A000A319D528A31BD9280800A0018C140C1072
:1001B0000800A0010C148C1008001F302400160544
:1001C0002000031DDD2824001419E3280800FF3057
:0E01D000240016151619EA2820002010080039
:020000040001F9
:02000E00A40943
:02001000FF1ED1
:00000001FF
