:020000040000FA
:020000000528D1
:040002000034003492
:0800080007281B20142820002A
:10001000111C1128200020180E281028B1201128AA
:1000200092202000910109002000A20A0330220240
:060030000319A2011428CF
:0A00360021007A3099002A009A0197
:1000400021001510951015119515151295121517FB
:10005000951720008B110B120B178B1721000930FD
:1000600091002100920121009301210094012000C0
:1000700091012000920120009301200094012000B2
:10008000A8302000990122009D019C0120008C01D4
:1000900022008C012100FF308C0025008C01230000
:1000A0008C0126008C01270000309100270092016E
:1000B00020008D0122008D012100FF308D002500E0
:1000C0008D0123008D0126008D0127000030940052
:1000D00027000030950027008D0120008E012200AE
:1000E0008E012100FF308E0025008E0123008E013D
:1000F00026008E012400273092002400083095004D
:10010000951624009601240097012400C030940025
:100110002000A00120000B10270093010B102000ED
:0401200018140800A7
:0C012400DB202400161416189528240077
:1001300002309100240014189B28DB202400161B99
:10014000E52824004530910024001418A528DB2060
:100150002400161BE52816151619AC2820002014BB
:100160000800DB20240016141618B42824000330DD
:10017000910024001418BA28DB202400161BE5285F
:1001800096152400141CC228240011082000A30086
:1001900016151619C928CD2008002000A319D32848
:1001A000A31BD7280800A0018C140C100800A00184
:1001B0000C148C1008001F30240016052000031DAD
:1001C000DB2824001419E1280800FF30240016154C
:0601D0001619E8280800E2
:020000040001F9
:02000E00A40943
:02001000FF1ED1
:00000001FF
